{
  "contractName": "BlindAuction",
  "abi": [
    {
      "inputs": [],
      "stateMutability": "nonpayable",
      "type": "constructor"
    },
    {
      "inputs": [],
      "name": "AuctionDoesNotExistOrHasEnded",
      "type": "error"
    },
    {
      "inputs": [],
      "name": "AuctionEnded",
      "type": "error"
    },
    {
      "inputs": [],
      "name": "NotABeneficiary",
      "type": "error"
    },
    {
      "inputs": [
        {
          "internalType": "enum Phase",
          "name": "currentPhase",
          "type": "uint8"
        }
      ],
      "name": "PhaseEnded",
      "type": "error"
    },
    {
      "inputs": [
        {
          "internalType": "enum Phase",
          "name": "currentPhase",
          "type": "uint8"
        }
      ],
      "name": "PhaseNotStarted",
      "type": "error"
    },
    {
      "anonymous": false,
      "inputs": [
        {
          "indexed": true,
          "internalType": "bytes32",
          "name": "auctionId",
          "type": "bytes32"
        }
      ],
      "name": "AuctionRegistration",
      "type": "event"
    },
    {
      "anonymous": false,
      "inputs": [
        {
          "indexed": true,
          "internalType": "address",
          "name": "bidder",
          "type": "address"
        }
      ],
      "name": "NewBid",
      "type": "event"
    },
    {
      "anonymous": false,
      "inputs": [
        {
          "indexed": true,
          "internalType": "bytes32",
          "name": "auctionId",
          "type": "bytes32"
        },
        {
          "indexed": false,
          "internalType": "enum Phase",
          "name": "phase",
          "type": "uint8"
        }
      ],
      "name": "PhaseChanged",
      "type": "event"
    },
    {
      "anonymous": false,
      "inputs": [
        {
          "indexed": true,
          "internalType": "address",
          "name": "bidder",
          "type": "address"
        },
        {
          "indexed": false,
          "internalType": "uint256",
          "name": "amount",
          "type": "uint256"
        }
      ],
      "name": "Withdrawal",
      "type": "event"
    },
    {
      "inputs": [],
      "name": "newAuction",
      "outputs": [],
      "stateMutability": "nonpayable",
      "type": "function"
    },
    {
      "inputs": [
        {
          "internalType": "bytes32",
          "name": "auctionId",
          "type": "bytes32"
        }
      ],
      "name": "nextPhase",
      "outputs": [],
      "stateMutability": "nonpayable",
      "type": "function"
    },
    {
      "inputs": [
        {
          "internalType": "bytes32",
          "name": "blindedBid",
          "type": "bytes32"
        },
        {
          "internalType": "bytes32",
          "name": "auctionId",
          "type": "bytes32"
        }
      ],
      "name": "bid",
      "outputs": [],
      "stateMutability": "payable",
      "type": "function"
    },
    {
      "inputs": [],
      "name": "getAuctions",
      "outputs": [
        {
          "components": [
            {
              "internalType": "enum Phase",
              "name": "phase",
              "type": "uint8"
            },
            {
              "internalType": "address",
              "name": "beneficiary",
              "type": "address"
            },
            {
              "internalType": "bytes32",
              "name": "id",
              "type": "bytes32"
            }
          ],
          "internalType": "struct Auction[]",
          "name": "",
          "type": "tuple[]"
        }
      ],
      "stateMutability": "view",
      "type": "function"
    },
    {
      "inputs": [
        {
          "internalType": "bytes32",
          "name": "auctionId",
          "type": "bytes32"
        },
        {
          "internalType": "uint256",
          "name": "amount",
          "type": "uint256"
        },
        {
          "internalType": "bytes32",
          "name": "secret",
          "type": "bytes32"
        }
      ],
      "name": "reveal",
      "outputs": [],
      "stateMutability": "nonpayable",
      "type": "function"
    },
    {
      "inputs": [],
      "name": "withdraw",
      "outputs": [],
      "stateMutability": "nonpayable",
      "type": "function"
    },
    {
      "inputs": [
        {
          "internalType": "bytes32",
          "name": "auctionId",
          "type": "bytes32"
        }
      ],
      "name": "endAuction",
      "outputs": [],
      "stateMutability": "nonpayable",
      "type": "function"
    }
  ],
  "bytecode": "0x608060405234801561001057600080fd5b50336000806101000a81548173ffffffffffffffffffffffffffffffffffffffff021916908373ffffffffffffffffffffffffffffffffffffffff160217905550611bba806100606000396000f3fe6080604052600436106100705760003560e01c8063434f967c1161004e578063434f967c146100de5780635137aa7b146100fa57806398afd58314610123578063d7c069191461013a57610070565b806301db46a0146100755780633a29fcb71461009e5780633ccfd60b146100c7575b600080fd5b34801561008157600080fd5b5061009c60048036038101906100979190611532565b610165565b005b3480156100aa57600080fd5b506100c560048036038101906100c09190611532565b610471565b005b3480156100d357600080fd5b506100dc6107f7565b005b6100f860048036038101906100f3919061155f565b61095b565b005b34801561010657600080fd5b50610121600480360381019061011c91906115d5565b610c29565b005b34801561012f57600080fd5b50610138610f99565b005b34801561014657600080fd5b5061014f611100565b60405161015c91906117e0565b60405180910390f35b80600073ffffffffffffffffffffffffffffffffffffffff166001600083815260200190815260200160002060000160019054906101000a900473ffffffffffffffffffffffffffffffffffffffff1673ffffffffffffffffffffffffffffffffffffffff1603610202576040517fc5d2d6ef00000000000000000000000000000000000000000000000000000000815260040160405180910390fd5b813373ffffffffffffffffffffffffffffffffffffffff166001600083815260200190815260200160002060000160019054906101000a900473ffffffffffffffffffffffffffffffffffffffff1673ffffffffffffffffffffffffffffffffffffffff161461029e576040517f43290f5b00000000000000000000000000000000000000000000000000000000815260040160405180910390fd5b82600360006001600084815260200190815260200160002060000160009054906101000a900460ff1690508160038111156102dc576102db611654565b5b8160038111156102ef576102ee611654565b5b101561033257806040517f160648200000000000000000000000000000000000000000000000000000000081526004016103299190611811565b60405180910390fd5b81600381111561034557610344611654565b5b81600381111561035857610357611654565b5b111561039b57806040517f79ccfe830000000000000000000000000000000000000000000000000000000081526004016103929190611811565b60405180910390fd5b6000600360008881526020019081526020016000206040518060400160405290816000820160009054906101000a900473ffffffffffffffffffffffffffffffffffffffff1673ffffffffffffffffffffffffffffffffffffffff1673ffffffffffffffffffffffffffffffffffffffff16815260200160018201548152505090503373ffffffffffffffffffffffffffffffffffffffff166108fc82602001519081150290604051600060405180830381858888f19350505050158015610467573d6000803e3d6000fd5b5050505050505050565b80600073ffffffffffffffffffffffffffffffffffffffff166001600083815260200190815260200160002060000160019054906101000a900473ffffffffffffffffffffffffffffffffffffffff1673ffffffffffffffffffffffffffffffffffffffff160361050e576040517fc5d2d6ef00000000000000000000000000000000000000000000000000000000815260040160405180910390fd5b813373ffffffffffffffffffffffffffffffffffffffff166001600083815260200190815260200160002060000160019054906101000a900473ffffffffffffffffffffffffffffffffffffffff1673ffffffffffffffffffffffffffffffffffffffff16146105aa576040517f43290f5b00000000000000000000000000000000000000000000000000000000815260040160405180910390fd5b6000600160008581526020019081526020016000206040518060600160405290816000820160009054906101000a900460ff1660038111156105ef576105ee611654565b5b600381111561060157610600611654565b5b81526020016000820160019054906101000a900473ffffffffffffffffffffffffffffffffffffffff1673ffffffffffffffffffffffffffffffffffffffff1673ffffffffffffffffffffffffffffffffffffffff1681526020016001820154815250509050600060018260000151600381111561068257610681611654565b5b61068c919061185b565b9050806003808111156106a2576106a1611654565b5b10156106da576040517fa0e9298400000000000000000000000000000000000000000000000000000000815260040160405180910390fd5b8060038111156106ed576106ec611654565b5b8260000190600381111561070457610703611654565b5b9081600381111561071857610717611654565b5b81525050816001600087815260200190815260200160002060008201518160000160006101000a81548160ff0219169083600381111561075b5761075a611654565b5b021790555060208201518160000160016101000a81548173ffffffffffffffffffffffffffffffffffffffff021916908373ffffffffffffffffffffffffffffffffffffffff16021790555060408201518160010155905050847f6c9e42266ac6b4d09030e017612a49536595f42d4a270646f278d61fabd11bb483600001516040516107e89190611811565b60405180910390a25050505050565b6000600460003373ffffffffffffffffffffffffffffffffffffffff1673ffffffffffffffffffffffffffffffffffffffff1681526020019081526020016000205490506000811161087e576040517f08c379a0000000000000000000000000000000000000000000000000000000008152600401610875906118ec565b60405180910390fd5b6000600460003373ffffffffffffffffffffffffffffffffffffffff1673ffffffffffffffffffffffffffffffffffffffff168152602001908152602001600020819055503373ffffffffffffffffffffffffffffffffffffffff166108fc829081150290604051600060405180830381858888f19350505050158015610909573d6000803e3d6000fd5b503373ffffffffffffffffffffffffffffffffffffffff167f7fcf532c15f0a6db0bd6d0e038bea71d30d808c7d98cb3bf7268a95bf5081b6582604051610950919061191b565b60405180910390a250565b80600073ffffffffffffffffffffffffffffffffffffffff166001600083815260200190815260200160002060000160019054906101000a900473ffffffffffffffffffffffffffffffffffffffff1673ffffffffffffffffffffffffffffffffffffffff16036109f8576040517fc5d2d6ef00000000000000000000000000000000000000000000000000000000815260040160405180910390fd5b81600160006001600084815260200190815260200160002060000160009054906101000a900460ff169050816003811115610a3657610a35611654565b5b816003811115610a4957610a48611654565b5b1015610a8c57806040517f16064820000000000000000000000000000000000000000000000000000000008152600401610a839190611811565b60405180910390fd5b816003811115610a9f57610a9e611654565b5b816003811115610ab257610ab1611654565b5b1115610af557806040517f79ccfe83000000000000000000000000000000000000000000000000000000008152600401610aec9190611811565b60405180910390fd5b600060405180606001604052808881526020013373ffffffffffffffffffffffffffffffffffffffff16815260200134815250905080600260003373ffffffffffffffffffffffffffffffffffffffff1673ffffffffffffffffffffffffffffffffffffffff16815260200190815260200160002060008881526020019081526020016000206000820151816000015560208201518160010160006101000a81548173ffffffffffffffffffffffffffffffffffffffff021916908373ffffffffffffffffffffffffffffffffffffffff16021790555060408201518160020155905050806020015173ffffffffffffffffffffffffffffffffffffffff167f1c10a18fffb6543afbf4d75ce6f3cfa56c73dd74e56fdc8c9474f30fc271238660405160405180910390a250505050505050565b82600073ffffffffffffffffffffffffffffffffffffffff166001600083815260200190815260200160002060000160019054906101000a900473ffffffffffffffffffffffffffffffffffffffff1673ffffffffffffffffffffffffffffffffffffffff1603610cc6576040517fc5d2d6ef00000000000000000000000000000000000000000000000000000000815260040160405180910390fd5b83600260006001600084815260200190815260200160002060000160009054906101000a900460ff169050816003811115610d0457610d03611654565b5b816003811115610d1757610d16611654565b5b1015610d5a57806040517f16064820000000000000000000000000000000000000000000000000000000008152600401610d519190611811565b60405180910390fd5b816003811115610d6d57610d6c611654565b5b816003811115610d8057610d7f611654565b5b1115610dc357806040517f79ccfe83000000000000000000000000000000000000000000000000000000008152600401610dba9190611811565b60405180910390fd5b6000600260003373ffffffffffffffffffffffffffffffffffffffff1673ffffffffffffffffffffffffffffffffffffffff1681526020019081526020016000206000898152602001908152602001600020604051806060016040529081600082015481526020016001820160009054906101000a900473ffffffffffffffffffffffffffffffffffffffff1673ffffffffffffffffffffffffffffffffffffffff1673ffffffffffffffffffffffffffffffffffffffff1681526020016002820154815250509050600073ffffffffffffffffffffffffffffffffffffffff16816020015173ffffffffffffffffffffffffffffffffffffffff1603610eff576040517f08c379a0000000000000000000000000000000000000000000000000000000008152600401610ef6906119a8565b60405180910390fd5b6000610f0b88886112bd565b826000015103610f8e578160400151905087826040015110610f4657610f3189896112f0565b15610f45578781610f4291906119c8565b90505b5b3373ffffffffffffffffffffffffffffffffffffffff166108fc829081150290604051600060405180830381858888f19350505050158015610f8c573d6000803e3d6000fd5b505b505050505050505050565b60003342604051602001610fae929190611a65565b6040516020818303038152906040528051906020012090506000604051806060016040528060006003811115610fe757610fe6611654565b5b81526020013373ffffffffffffffffffffffffffffffffffffffff168152602001838152509050806001600084815260200190815260200160002060008201518160000160006101000a81548160ff0219169083600381111561104d5761104c611654565b5b021790555060208201518160000160016101000a81548173ffffffffffffffffffffffffffffffffffffffff021916908373ffffffffffffffffffffffffffffffffffffffff160217905550604082015181600101559050506005829080600181540180825580915050600190039060005260206000200160009091909190915055817fc8410d6aa860303a3c7ff4257ec5e03d7e15e8940dfa4ce62ab7486430ef6f9860405160405180910390a25050565b6060600060058054905067ffffffffffffffff81111561112357611122611a91565b5b60405190808252806020026020018201604052801561115c57816020015b6111496114ab565b8152602001906001900390816111415790505b50905060005b6005805490508110156112b5576000600160006005848154811061118957611188611ac0565b5b906000526020600020015481526020019081526020016000206040518060600160405290816000820160009054906101000a900460ff1660038111156111d2576111d1611654565b5b60038111156111e4576111e3611654565b5b81526020016000820160019054906101000a900473ffffffffffffffffffffffffffffffffffffffff1673ffffffffffffffffffffffffffffffffffffffff1673ffffffffffffffffffffffffffffffffffffffff16815260200160018201548152505090503373ffffffffffffffffffffffffffffffffffffffff16816020015173ffffffffffffffffffffffffffffffffffffffff16036112a1578083838151811061129557611294611ac0565b5b60200260200101819052505b5080806112ad90611aef565b915050611162565b508091505090565b600082826040516020016112d2929190611b58565b60405160208183030381529060405280519060200120905092915050565b600080600360008581526020019081526020016000206040518060400160405290816000820160009054906101000a900473ffffffffffffffffffffffffffffffffffffffff1673ffffffffffffffffffffffffffffffffffffffff1673ffffffffffffffffffffffffffffffffffffffff1681526020016001820154815250509050828160200151106113885760009150506114a5565b600073ffffffffffffffffffffffffffffffffffffffff16816000015173ffffffffffffffffffffffffffffffffffffffff161461140d57806020015160046000836000015173ffffffffffffffffffffffffffffffffffffffff1673ffffffffffffffffffffffffffffffffffffffff168152602001908152602001600020819055505b60405180604001604052803373ffffffffffffffffffffffffffffffffffffffff168152602001848152506003600086815260200190815260200160002060008201518160000160006101000a81548173ffffffffffffffffffffffffffffffffffffffff021916908373ffffffffffffffffffffffffffffffffffffffff1602179055506020820151816001015590505060019150505b92915050565b6040518060600160405280600060038111156114ca576114c9611654565b5b8152602001600073ffffffffffffffffffffffffffffffffffffffff168152602001600080191681525090565b600080fd5b6000819050919050565b61150f816114fc565b811461151a57600080fd5b50565b60008135905061152c81611506565b92915050565b600060208284031215611548576115476114f7565b5b60006115568482850161151d565b91505092915050565b60008060408385031215611576576115756114f7565b5b60006115848582860161151d565b92505060206115958582860161151d565b9150509250929050565b6000819050919050565b6115b28161159f565b81146115bd57600080fd5b50565b6000813590506115cf816115a9565b92915050565b6000806000606084860312156115ee576115ed6114f7565b5b60006115fc8682870161151d565b935050602061160d868287016115c0565b925050604061161e8682870161151d565b9150509250925092565b600081519050919050565b600082825260208201905092915050565b6000819050602082019050919050565b7f4e487b7100000000000000000000000000000000000000000000000000000000600052602160045260246000fd5b6004811061169457611693611654565b5b50565b60008190506116a582611683565b919050565b60006116b582611697565b9050919050565b6116c5816116aa565b82525050565b600073ffffffffffffffffffffffffffffffffffffffff82169050919050565b60006116f6826116cb565b9050919050565b611706816116eb565b82525050565b611715816114fc565b82525050565b60608201600082015161173160008501826116bc565b50602082015161174460208501826116fd565b506040820151611757604085018261170c565b50505050565b6000611769838361171b565b60608301905092915050565b6000602082019050919050565b600061178d82611628565b6117978185611633565b93506117a283611644565b8060005b838110156117d35781516117ba888261175d565b97506117c583611775565b9250506001810190506117a6565b5085935050505092915050565b600060208201905081810360008301526117fa8184611782565b905092915050565b61180b816116aa565b82525050565b60006020820190506118266000830184611802565b92915050565b7f4e487b7100000000000000000000000000000000000000000000000000000000600052601160045260246000fd5b60006118668261159f565b91506118718361159f565b92508282019050808211156118895761188861182c565b5b92915050565b600082825260208201905092915050565b7f4e6f7468696e6720746f20726566756e64000000000000000000000000000000600082015250565b60006118d660118361188f565b91506118e1826118a0565b602082019050919050565b60006020820190508181036000830152611905816118c9565b9050919050565b6119158161159f565b82525050565b6000602082019050611930600083018461190c565b92915050565b7f4e6f2062696420666f72207468652061756374696f6e2077697468207468652060008201527f676976656e204944000000000000000000000000000000000000000000000000602082015250565b600061199260288361188f565b915061199d82611936565b604082019050919050565b600060208201905081810360008301526119c181611985565b9050919050565b60006119d38261159f565b91506119de8361159f565b92508282039050818111156119f6576119f561182c565b5b92915050565b60008160601b9050919050565b6000611a14826119fc565b9050919050565b6000611a2682611a09565b9050919050565b611a3e611a39826116eb565b611a1b565b82525050565b6000819050919050565b611a5f611a5a8261159f565b611a44565b82525050565b6000611a718285611a2d565b601482019150611a818284611a4e565b6020820191508190509392505050565b7f4e487b7100000000000000000000000000000000000000000000000000000000600052604160045260246000fd5b7f4e487b7100000000000000000000000000000000000000000000000000000000600052603260045260246000fd5b6000611afa8261159f565b91507fffffffffffffffffffffffffffffffffffffffffffffffffffffffffffffffff8203611b2c57611b2b61182c565b5b600182019050919050565b6000819050919050565b611b52611b4d826114fc565b611b37565b82525050565b6000611b648285611a4e565b602082019150611b748284611b41565b602082019150819050939250505056fea2646970667358221220dbafc0b009fe5dfc55ea1896de45af7f4aa91d5b4e4e50e5febae6596cf2da8364736f6c63430008110033",
  "immutableReferences": {},
  "source": "// SPDX-License-Identifier: GPL-3.0\n\npragma solidity >= 0.8.0 < 0.9.0;\n\n/**\n * @dev Bidder's bid info\n */\nstruct Bid {\n    bytes32 blindedBid;\n    address bidder; // address of the bidder\n    uint deposit;\n}\n\n/// @dev store Highest bid info\nstruct HighestBid {\n    address bidder;\n    uint amount;\n}\n\n/// @notice Auction info\n/// @dev id = keccak256(abi.encodePacked(benefiaciaryAddress, block.timestamp()))\nstruct Auction {\n    Phase phase;\n    address beneficiary;\n    bytes32 id;\n}\n\n/// @notice states definition - used to define rules for participating in the auction\nenum Phase {\n    INIT, BIDDING, REVEAL, DONE\n}\n\n/**\n * @title Blind auction contract\n * @notice Enables beneficiaries to place blind auctions and bidders to bid on whatever was auctioned\n * @dev this is an experimental implementation. Might not be suitable for production use-cases\n */\ncontract BlindAuction {\n    address private _dev; // the deployer is considered the developer\n\n    /// @dev auctionId => AuctionInfo\n    mapping(bytes32 => Auction) private _auctions;\n\n    /// @dev bidderAddress => { auctionId => Bid }\n    mapping(address => mapping(bytes32 => Bid)) private _bids;\n\n    /// @dev stores details of highest bids\n    mapping(bytes32 => HighestBid) private _highestBids;\n\n    /// @dev save prev highestBidders whose funds are still left to be returned\n    mapping(address => uint) private _depositReturns;\n\n    bytes32[] private _auctionIds; /// store the ids to able to easily query auctions and bids\n\n    /// @dev emits when a phase changes\n    /// @param auctionId bytes32 id of auction\n    /// @param phase new phase\n    event PhaseChanged(bytes32 indexed auctionId, Phase phase);\n\n    /// @dev emits when a new auction is registered\n    /// @param auctionId generated auction ID\n    event AuctionRegistration(bytes32 indexed auctionId);\n\n    /// @dev emits when a new bid is placed\n    /// @param bidder address of the bidder\n    event NewBid(address indexed bidder);\n\n    /// @dev emits when previous highest bidders withdraw their deposit returns\n    /// @param bidder address of the bidder\n    /// @param amount amount withdrawn\n    event Withdrawal(address indexed bidder, uint amount);\n\n    /// @dev used with revert when a non-beneficiary of an auction is trying to claim the auction's bid\n    error NotABeneficiary();\n\n    /// @dev used with revert when trying to perform an action \n    /// which can only be performed during a phase that hasn't started\n    /// @param currentPhase the current phase\n    error PhaseNotStarted(Phase currentPhase);\n\n    /// @dev used with revert when trying to perform an action\n    /// which can only be perform during a phase that has already ended\n    /// @param currentPhase the current phase\n    error PhaseEnded(Phase currentPhase);\n\n    /// @dev used when trying to move to next phase\n    error AuctionEnded();\n\n    /// @dev used with revert when a wrong auction id is provided\n    error AuctionDoesNotExistOrHasEnded();\n\n    /// @dev guard against unauthorized claiming of auctions deposits\n    /// @param auctionId the bytes32 ID of the auction\n    modifier onlyBeneficiary(bytes32 auctionId) {\n        if (_auctions[auctionId].beneficiary != msg.sender) revert NotABeneficiary();\n        _;\n    }\n\n    /// @dev checks if the `auctionId` provided is valid or not\n    /// @param auctionId the bytes32 ID of the auction\n    modifier auctionExists(bytes32 auctionId) {\n        if(_auctions[auctionId].beneficiary == address(0)) revert AuctionDoesNotExistOrHasEnded();\n        _;\n    }\n\n    /**\n     * @dev guard against inappropriate calling of functions in wrong phase\n     * @param auctionId bytes32 id of the auction\n     * @param requiredPhase the auction phase as defined by {Phase} enum\n     */\n    modifier validPhase(bytes32 auctionId, Phase requiredPhase) {\n        Phase currentPhase = _auctions[auctionId].phase;\n        if (currentPhase < requiredPhase) revert PhaseNotStarted(currentPhase);\n        else if (currentPhase > requiredPhase) revert PhaseEnded(currentPhase);\n        else _;\n    }\n\n    constructor() {\n        _dev = msg.sender;\n    }\n\n    /// @notice register new auction\n    function newAuction() public {\n        bytes32 auctionId = keccak256(abi.encodePacked(msg.sender, block.timestamp));\n\n        /// create action info\n        Auction memory auction_ = Auction({\n            phase: Phase.INIT,\n            beneficiary: msg.sender,\n            id: auctionId\n        });\n\n        _auctions[auctionId] = auction_; // save auction\n        _auctionIds.push(auctionId); // save id\n\n        emit AuctionRegistration(auctionId);\n    }\n\n    /**\n     * @notice progress to next phase\n     * @param auctionId ID of the auction\n     */\n    function nextPhase(bytes32 auctionId) public auctionExists(auctionId) onlyBeneficiary(auctionId) {\n        Auction memory auction_ = _auctions[auctionId]; // use memory data location to ensure data is copied\n\n        uint nxtPhase = uint(auction_.phase) + 1; // compute next phase\n\n        /// get the max value of the enum, convert it to uint and ensure `nxtPhase` isn't greater than it\n        if(uint(type(Phase).max) < nxtPhase) revert AuctionEnded();\n\n        auction_.phase = Phase(nxtPhase); // update Phase\n\n        _auctions[auctionId] = auction_; // replace previous data\n\n        emit PhaseChanged(auctionId, auction_.phase); // emit event\n    }\n\n\n    /**\n     * @notice place a bid\n     * @param blindedBid - secret\n     * @param auctionId id of the auction to place bid for\n     */\n    function bid(bytes32 blindedBid, bytes32 auctionId) public payable auctionExists(auctionId) validPhase(auctionId, Phase.BIDDING) {\n\n        // create bid\n        Bid memory bid_ = Bid({\n            blindedBid: blindedBid,\n            bidder: msg.sender,\n            deposit: msg.value\n        });\n\n        _bids[msg.sender][auctionId] = bid_; // save bid\n\n        emit NewBid(bid_.bidder); // emit bid event\n    }\n\n    /**\n     * @notice get registered auctions\n     * @return array of auctions registered by `msg.sender`\n     * Note: The function returns an array whose length equals the length of `_auctionIds`. \n     * Each element is actually an {Auction} struct with solidity default values except the \n     * elements at the position whose Auction was created by the beneficiary\n     */\n    function getAuctions() public view returns (Auction[] memory) {\n        Auction[] memory aucts_ = new Auction[](_auctionIds.length); // create array with legth equals to `_auctionsIds.length`\n\n        for(uint i = 0; i < _auctionIds.length; i++) {\n            Auction memory auction_ = _auctions[_auctionIds[i]];\n\n            if(auction_.beneficiary == msg.sender) {\n                aucts_[i] = auction_;\n            }\n        }\n\n        return aucts_;\n    }\n\n    function reveal(bytes32 auctionId, uint amount, bytes32 secret) \n        public auctionExists(auctionId) validPhase(auctionId, Phase.REVEAL) {\n            Bid memory bid_ = _bids[msg.sender][auctionId]; // get bidder's bid\n\n            require(bid_.bidder != address(0), \"No bid for the auction with the given ID\"); // ensure there is already a registered bid\n\n            uint refund; // amount to eventually refund\n\n            if(bid_.blindedBid == _computeHash(amount, secret)) {\n                refund = bid_.deposit;\n\n                if(bid_.deposit >= amount) {\n                    if(_placeBid(auctionId, amount)) {\n                        refund -= amount; // in case of overage, return the excess\n                    }\n                }\n\n                // refund excess if highest bidder or everything if not the highest bidder\n                payable(msg.sender).transfer(refund);\n            }\n\n    }\n\n    /// @dev compute kaccak256 of given arguments after \n    /// @return hash of the packedEncoding of the given arguments\n    function _computeHash(uint value, bytes32 secret) private pure returns (bytes32) {\n        return keccak256(abi.encodePacked(value, secret));\n    }\n\n    /**\n     * @dev Check if `msg.sender` is now the highest bidder and place bid\n     * Note: Save previous highest bidder's deposit amount if already exist\n     * @param auctionId bytes32 id of the auction\n     * @param amount the actual revealed amount\n     */\n    function _placeBid(bytes32 auctionId, uint amount) internal returns (bool) {\n        HighestBid memory highestBid_ = _highestBids[auctionId];\n\n        if(highestBid_.amount >= amount) {\n            return false; // msg.sender isn't the highest bidder, so no need to continue\n        }\n\n        // in case there is already a highest bid, save previous highest bidder's deposit amount for later refund\n        if(highestBid_.bidder != address(0)) {\n            _depositReturns[highestBid_.bidder] = highestBid_.amount;\n        }\n\n        // update highest bid\n        _highestBids[auctionId] = HighestBid(\n            msg.sender, amount\n        );\n\n        return true;\n    }\n\n    /// @notice withdraw funds previous bidded\n    function withdraw() public {\n        uint amount = _depositReturns[msg.sender];\n        \n        require(amount > 0, \"Nothing to refund\");\n\n        _depositReturns[msg.sender] = 0;\n\n        payable(msg.sender).transfer(amount);\n\n        emit Withdrawal(msg.sender, amount); // emit event\n\n    }\n\n    /// @notice end auction and return highest bidder's amount to beneficiary\n    /// @param auctionId bytes32 id of the auction\n    function endAuction(bytes32 auctionId) public \n        auctionExists(auctionId) onlyBeneficiary(auctionId) validPhase(auctionId, Phase.DONE) {\n            HighestBid memory highestBid_ = _highestBids[auctionId];\n\n            payable(msg.sender).transfer(highestBid_.amount); // transfer amount to beneficiary\n    }\n}   ",
  "sourcePath": "/Users/josh/Bytangle/Practice/Web3.0 & dApps/contracts/blind-auction/contracts/BlindAuction.sol",
  "compiler": {
    "name": "solc",
    "version": "0.8.17+commit.8df45f5f.Emscripten.clang"
  },
  "schemaVersion": "3.4.10",
  "updatedAt": "2022-09-20T19:15:31.203Z",
  "devdoc": {
    "details": "this is an experimental implementation. Might not be suitable for production use-cases",
    "errors": {
      "AuctionDoesNotExistOrHasEnded()": [
        {
          "details": "used with revert when a wrong auction id is provided"
        }
      ],
      "AuctionEnded()": [
        {
          "details": "used when trying to move to next phase"
        }
      ],
      "NotABeneficiary()": [
        {
          "details": "used with revert when a non-beneficiary of an auction is trying to claim the auction's bid"
        }
      ],
      "PhaseEnded(uint8)": [
        {
          "details": "used with revert when trying to perform an action which can only be perform during a phase that has already ended",
          "params": {
            "currentPhase": "the current phase"
          }
        }
      ],
      "PhaseNotStarted(uint8)": [
        {
          "details": "used with revert when trying to perform an action  which can only be performed during a phase that hasn't started",
          "params": {
            "currentPhase": "the current phase"
          }
        }
      ]
    },
    "events": {
      "AuctionRegistration(bytes32)": {
        "details": "emits when a new auction is registered",
        "params": {
          "auctionId": "generated auction ID"
        }
      },
      "NewBid(address)": {
        "details": "emits when a new bid is placed",
        "params": {
          "bidder": "address of the bidder"
        }
      },
      "PhaseChanged(bytes32,uint8)": {
        "details": "emits when a phase changes",
        "params": {
          "auctionId": "bytes32 id of auction",
          "phase": "new phase"
        }
      },
      "Withdrawal(address,uint256)": {
        "details": "emits when previous highest bidders withdraw their deposit returns",
        "params": {
          "amount": "amount withdrawn",
          "bidder": "address of the bidder"
        }
      }
    },
    "kind": "dev",
    "methods": {
      "bid(bytes32,bytes32)": {
        "params": {
          "auctionId": "id of the auction to place bid for",
          "blindedBid": "- secret"
        }
      },
      "endAuction(bytes32)": {
        "params": {
          "auctionId": "bytes32 id of the auction"
        }
      },
      "getAuctions()": {
        "returns": {
          "_0": "array of auctions registered by `msg.sender` Note: The function returns an array whose length equals the length of `_auctionIds`.  Each element is actually an {Auction} struct with solidity default values except the  elements at the position whose Auction was created by the beneficiary"
        }
      },
      "nextPhase(bytes32)": {
        "params": {
          "auctionId": "ID of the auction"
        }
      }
    },
    "stateVariables": {
      "_auctions": {
        "details": "auctionId => AuctionInfo"
      },
      "_bids": {
        "details": "bidderAddress => { auctionId => Bid }"
      },
      "_depositReturns": {
        "details": "save prev highestBidders whose funds are still left to be returned"
      },
      "_highestBids": {
        "details": "stores details of highest bids"
      }
    },
    "title": "Blind auction contract",
    "version": 1
  },
  "userdoc": {
    "kind": "user",
    "methods": {
      "bid(bytes32,bytes32)": {
        "notice": "place a bid"
      },
      "endAuction(bytes32)": {
        "notice": "end auction and return highest bidder's amount to beneficiary"
      },
      "getAuctions()": {
        "notice": "get registered auctions"
      },
      "newAuction()": {
        "notice": "register new auction"
      },
      "nextPhase(bytes32)": {
        "notice": "progress to next phase"
      },
      "withdraw()": {
        "notice": "withdraw funds previous bidded"
      }
    },
    "notice": "Enables beneficiaries to place blind auctions and bidders to bid on whatever was auctioned",
    "version": 1
  }
}